{
  "contractName": "Game",
  "abi": [
    {
      "inputs": [
        {
          "internalType": "address",
          "name": "_vrfCoordinator",
          "type": "address"
        },
        {
          "internalType": "address",
          "name": "_linkToken",
          "type": "address"
        },
        {
          "internalType": "address",
          "name": "_resolver",
          "type": "address"
        },
        {
          "internalType": "bytes32",
          "name": "_keyHash",
          "type": "bytes32"
        }
      ],
      "stateMutability": "payable",
      "type": "constructor",
      "payable": true
    },
    {
      "anonymous": false,
      "inputs": [
        {
          "indexed": true,
          "internalType": "address",
          "name": "owner",
          "type": "address"
        },
        {
          "indexed": true,
          "internalType": "address",
          "name": "approved",
          "type": "address"
        },
        {
          "indexed": true,
          "internalType": "uint256",
          "name": "tokenId",
          "type": "uint256"
        }
      ],
      "name": "Approval",
      "type": "event"
    },
    {
      "anonymous": false,
      "inputs": [
        {
          "indexed": true,
          "internalType": "address",
          "name": "owner",
          "type": "address"
        },
        {
          "indexed": true,
          "internalType": "address",
          "name": "operator",
          "type": "address"
        },
        {
          "indexed": false,
          "internalType": "bool",
          "name": "approved",
          "type": "bool"
        }
      ],
      "name": "ApprovalForAll",
      "type": "event"
    },
    {
      "anonymous": false,
      "inputs": [
        {
          "indexed": false,
          "internalType": "uint256",
          "name": "battleCount",
          "type": "uint256"
        }
      ],
      "name": "BattleContinued",
      "type": "event"
    },
    {
      "anonymous": false,
      "inputs": [
        {
          "indexed": true,
          "internalType": "address",
          "name": "player",
          "type": "address"
        },
        {
          "components": [
            {
              "internalType": "uint256",
              "name": "strength",
              "type": "uint256"
            },
            {
              "internalType": "uint256",
              "name": "stamina",
              "type": "uint256"
            },
            {
              "internalType": "uint256",
              "name": "speed",
              "type": "uint256"
            }
          ],
          "indexed": false,
          "internalType": "struct Game.Fighter",
          "name": "hero",
          "type": "tuple"
        }
      ],
      "name": "FighterBoosted",
      "type": "event"
    },
    {
      "anonymous": false,
      "inputs": [
        {
          "indexed": true,
          "internalType": "address",
          "name": "player",
          "type": "address"
        },
        {
          "components": [
            {
              "internalType": "uint256",
              "name": "strength",
              "type": "uint256"
            },
            {
              "internalType": "uint256",
              "name": "stamina",
              "type": "uint256"
            },
            {
              "internalType": "uint256",
              "name": "speed",
              "type": "uint256"
            }
          ],
          "indexed": false,
          "internalType": "struct Game.Fighter",
          "name": "hero",
          "type": "tuple"
        }
      ],
      "name": "FighterJoined",
      "type": "event"
    },
    {
      "anonymous": false,
      "inputs": [
        {
          "indexed": true,
          "internalType": "address",
          "name": "player",
          "type": "address"
        }
      ],
      "name": "PlayerJoined",
      "type": "event"
    },
    {
      "anonymous": false,
      "inputs": [
        {
          "indexed": true,
          "internalType": "address",
          "name": "player",
          "type": "address"
        },
        {
          "components": [
            {
              "internalType": "uint256",
              "name": "strength",
              "type": "uint256"
            },
            {
              "internalType": "uint256",
              "name": "stamina",
              "type": "uint256"
            },
            {
              "internalType": "uint256",
              "name": "speed",
              "type": "uint256"
            }
          ],
          "indexed": false,
          "internalType": "struct Game.Fighter",
          "name": "hero",
          "type": "tuple"
        }
      ],
      "name": "PlayerWon",
      "type": "event"
    },
    {
      "anonymous": false,
      "inputs": [
        {
          "indexed": true,
          "internalType": "address",
          "name": "player",
          "type": "address"
        },
        {
          "components": [
            {
              "internalType": "uint256",
              "name": "strength",
              "type": "uint256"
            },
            {
              "internalType": "uint256",
              "name": "stamina",
              "type": "uint256"
            },
            {
              "internalType": "uint256",
              "name": "speed",
              "type": "uint256"
            }
          ],
          "indexed": false,
          "internalType": "struct Game.Fighter",
          "name": "hero",
          "type": "tuple"
        },
        {
          "components": [
            {
              "internalType": "uint256",
              "name": "strength",
              "type": "uint256"
            },
            {
              "internalType": "uint256",
              "name": "stamina",
              "type": "uint256"
            },
            {
              "internalType": "uint256",
              "name": "speed",
              "type": "uint256"
            }
          ],
          "indexed": false,
          "internalType": "struct Game.Fighter",
          "name": "opponent",
          "type": "tuple"
        },
        {
          "indexed": false,
          "internalType": "bool",
          "name": "result",
          "type": "bool"
        }
      ],
      "name": "RoundFought",
      "type": "event"
    },
    {
      "anonymous": false,
      "inputs": [
        {
          "indexed": true,
          "internalType": "address",
          "name": "from",
          "type": "address"
        },
        {
          "indexed": true,
          "internalType": "address",
          "name": "to",
          "type": "address"
        },
        {
          "indexed": true,
          "internalType": "uint256",
          "name": "tokenId",
          "type": "uint256"
        }
      ],
      "name": "Transfer",
      "type": "event"
    },
    {
      "inputs": [
        {
          "internalType": "address",
          "name": "to",
          "type": "address"
        },
        {
          "internalType": "uint256",
          "name": "tokenId",
          "type": "uint256"
        }
      ],
      "name": "approve",
      "outputs": [],
      "stateMutability": "nonpayable",
      "type": "function"
    },
    {
      "inputs": [
        {
          "internalType": "address",
          "name": "owner",
          "type": "address"
        }
      ],
      "name": "balanceOf",
      "outputs": [
        {
          "internalType": "uint256",
          "name": "",
          "type": "uint256"
        }
      ],
      "stateMutability": "view",
      "type": "function",
      "constant": true
    },
    {
      "inputs": [],
      "name": "battleRound",
      "outputs": [
        {
          "internalType": "uint256",
          "name": "",
          "type": "uint256"
        }
      ],
      "stateMutability": "view",
      "type": "function",
      "constant": true
    },
    {
      "inputs": [
        {
          "internalType": "address",
          "name": "",
          "type": "address"
        }
      ],
      "name": "currentPlayerId",
      "outputs": [
        {
          "internalType": "uint256",
          "name": "",
          "type": "uint256"
        }
      ],
      "stateMutability": "view",
      "type": "function",
      "constant": true
    },
    {
      "inputs": [
        {
          "internalType": "address",
          "name": "",
          "type": "address"
        }
      ],
      "name": "currentPlayers",
      "outputs": [
        {
          "internalType": "bool",
          "name": "",
          "type": "bool"
        }
      ],
      "stateMutability": "view",
      "type": "function",
      "constant": true
    },
    {
      "inputs": [],
      "name": "duration",
      "outputs": [
        {
          "internalType": "uint256",
          "name": "",
          "type": "uint256"
        }
      ],
      "stateMutability": "view",
      "type": "function",
      "constant": true
    },
    {
      "inputs": [],
      "name": "end",
      "outputs": [
        {
          "internalType": "uint256",
          "name": "",
          "type": "uint256"
        }
      ],
      "stateMutability": "view",
      "type": "function",
      "constant": true
    },
    {
      "inputs": [],
      "name": "endRandomness",
      "outputs": [
        {
          "internalType": "uint256",
          "name": "",
          "type": "uint256"
        }
      ],
      "stateMutability": "view",
      "type": "function",
      "constant": true
    },
    {
      "inputs": [],
      "name": "endRequestId",
      "outputs": [
        {
          "internalType": "bytes32",
          "name": "",
          "type": "bytes32"
        }
      ],
      "stateMutability": "view",
      "type": "function",
      "constant": true
    },
    {
      "inputs": [
        {
          "internalType": "address",
          "name": "",
          "type": "address"
        }
      ],
      "name": "fighterByPlayer",
      "outputs": [
        {
          "internalType": "uint256",
          "name": "strength",
          "type": "uint256"
        },
        {
          "internalType": "uint256",
          "name": "stamina",
          "type": "uint256"
        },
        {
          "internalType": "uint256",
          "name": "speed",
          "type": "uint256"
        }
      ],
      "stateMutability": "view",
      "type": "function",
      "constant": true
    },
    {
      "inputs": [
        {
          "internalType": "uint256",
          "name": "tokenId",
          "type": "uint256"
        }
      ],
      "name": "getApproved",
      "outputs": [
        {
          "internalType": "address",
          "name": "",
          "type": "address"
        }
      ],
      "stateMutability": "view",
      "type": "function",
      "constant": true
    },
    {
      "inputs": [
        {
          "internalType": "address",
          "name": "owner",
          "type": "address"
        },
        {
          "internalType": "address",
          "name": "operator",
          "type": "address"
        }
      ],
      "name": "isApprovedForAll",
      "outputs": [
        {
          "internalType": "bool",
          "name": "",
          "type": "bool"
        }
      ],
      "stateMutability": "view",
      "type": "function",
      "constant": true
    },
    {
      "inputs": [],
      "name": "lastRequestId",
      "outputs": [
        {
          "internalType": "bytes32",
          "name": "",
          "type": "bytes32"
        }
      ],
      "stateMutability": "view",
      "type": "function",
      "constant": true
    },
    {
      "inputs": [],
      "name": "name",
      "outputs": [
        {
          "internalType": "string",
          "name": "",
          "type": "string"
        }
      ],
      "stateMutability": "view",
      "type": "function",
      "constant": true
    },
    {
      "inputs": [
        {
          "internalType": "uint256",
          "name": "",
          "type": "uint256"
        }
      ],
      "name": "nfts",
      "outputs": [
        {
          "internalType": "uint256",
          "name": "strength",
          "type": "uint256"
        },
        {
          "internalType": "uint256",
          "name": "stamina",
          "type": "uint256"
        },
        {
          "internalType": "uint256",
          "name": "speed",
          "type": "uint256"
        }
      ],
      "stateMutability": "view",
      "type": "function",
      "constant": true
    },
    {
      "inputs": [
        {
          "internalType": "uint256",
          "name": "tokenId",
          "type": "uint256"
        }
      ],
      "name": "ownerOf",
      "outputs": [
        {
          "internalType": "address",
          "name": "",
          "type": "address"
        }
      ],
      "stateMutability": "view",
      "type": "function",
      "constant": true
    },
    {
      "inputs": [
        {
          "internalType": "address",
          "name": "",
          "type": "address"
        }
      ],
      "name": "pendingPlayers",
      "outputs": [
        {
          "internalType": "bool",
          "name": "",
          "type": "bool"
        }
      ],
      "stateMutability": "view",
      "type": "function",
      "constant": true
    },
    {
      "inputs": [],
      "name": "playerCount",
      "outputs": [
        {
          "internalType": "uint256",
          "name": "",
          "type": "uint256"
        }
      ],
      "stateMutability": "view",
      "type": "function",
      "constant": true
    },
    {
      "inputs": [
        {
          "internalType": "bytes32",
          "name": "",
          "type": "bytes32"
        }
      ],
      "name": "playerRequestId",
      "outputs": [
        {
          "internalType": "address",
          "name": "",
          "type": "address"
        }
      ],
      "stateMutability": "view",
      "type": "function",
      "constant": true
    },
    {
      "inputs": [
        {
          "internalType": "uint256",
          "name": "",
          "type": "uint256"
        }
      ],
      "name": "players",
      "outputs": [
        {
          "internalType": "address",
          "name": "",
          "type": "address"
        }
      ],
      "stateMutability": "view",
      "type": "function",
      "constant": true
    },
    {
      "inputs": [],
      "name": "prize",
      "outputs": [
        {
          "internalType": "uint256",
          "name": "",
          "type": "uint256"
        }
      ],
      "stateMutability": "view",
      "type": "function",
      "constant": true
    },
    {
      "inputs": [
        {
          "internalType": "uint256",
          "name": "",
          "type": "uint256"
        }
      ],
      "name": "prizeByNFT",
      "outputs": [
        {
          "internalType": "uint256",
          "name": "",
          "type": "uint256"
        }
      ],
      "stateMutability": "view",
      "type": "function",
      "constant": true
    },
    {
      "inputs": [
        {
          "internalType": "bytes32",
          "name": "requestId",
          "type": "bytes32"
        },
        {
          "internalType": "uint256",
          "name": "randomness",
          "type": "uint256"
        }
      ],
      "name": "rawFulfillRandomness",
      "outputs": [],
      "stateMutability": "nonpayable",
      "type": "function"
    },
    {
      "inputs": [
        {
          "internalType": "address",
          "name": "from",
          "type": "address"
        },
        {
          "internalType": "address",
          "name": "to",
          "type": "address"
        },
        {
          "internalType": "uint256",
          "name": "tokenId",
          "type": "uint256"
        }
      ],
      "name": "safeTransferFrom",
      "outputs": [],
      "stateMutability": "nonpayable",
      "type": "function"
    },
    {
      "inputs": [
        {
          "internalType": "address",
          "name": "from",
          "type": "address"
        },
        {
          "internalType": "address",
          "name": "to",
          "type": "address"
        },
        {
          "internalType": "uint256",
          "name": "tokenId",
          "type": "uint256"
        },
        {
          "internalType": "bytes",
          "name": "_data",
          "type": "bytes"
        }
      ],
      "name": "safeTransferFrom",
      "outputs": [],
      "stateMutability": "nonpayable",
      "type": "function"
    },
    {
      "inputs": [
        {
          "internalType": "address",
          "name": "operator",
          "type": "address"
        },
        {
          "internalType": "bool",
          "name": "approved",
          "type": "bool"
        }
      ],
      "name": "setApprovalForAll",
      "outputs": [],
      "stateMutability": "nonpayable",
      "type": "function"
    },
    {
      "inputs": [
        {
          "internalType": "bytes4",
          "name": "interfaceId",
          "type": "bytes4"
        }
      ],
      "name": "supportsInterface",
      "outputs": [
        {
          "internalType": "bool",
          "name": "",
          "type": "bool"
        }
      ],
      "stateMutability": "view",
      "type": "function",
      "constant": true
    },
    {
      "inputs": [],
      "name": "symbol",
      "outputs": [
        {
          "internalType": "string",
          "name": "",
          "type": "string"
        }
      ],
      "stateMutability": "view",
      "type": "function",
      "constant": true
    },
    {
      "inputs": [],
      "name": "synthetixResolver",
      "outputs": [
        {
          "internalType": "contract IAddressResolver",
          "name": "",
          "type": "address"
        }
      ],
      "stateMutability": "view",
      "type": "function",
      "constant": true
    },
    {
      "inputs": [
        {
          "internalType": "uint256",
          "name": "tokenId",
          "type": "uint256"
        }
      ],
      "name": "tokenURI",
      "outputs": [
        {
          "internalType": "string",
          "name": "",
          "type": "string"
        }
      ],
      "stateMutability": "view",
      "type": "function",
      "constant": true
    },
    {
      "inputs": [
        {
          "internalType": "address",
          "name": "from",
          "type": "address"
        },
        {
          "internalType": "address",
          "name": "to",
          "type": "address"
        },
        {
          "internalType": "uint256",
          "name": "tokenId",
          "type": "uint256"
        }
      ],
      "name": "transferFrom",
      "outputs": [],
      "stateMutability": "nonpayable",
      "type": "function"
    },
    {
      "inputs": [],
      "name": "joinGame",
      "outputs": [],
      "stateMutability": "nonpayable",
      "type": "function"
    },
    {
      "inputs": [],
      "name": "getPlayers",
      "outputs": [
        {
          "internalType": "address[300]",
          "name": "",
          "type": "address[300]"
        }
      ],
      "stateMutability": "view",
      "type": "function",
      "constant": true
    },
    {
      "inputs": [],
      "name": "endGame",
      "outputs": [],
      "stateMutability": "nonpayable",
      "type": "function"
    },
    {
      "inputs": [],
      "name": "fightWar",
      "outputs": [],
      "stateMutability": "nonpayable",
      "type": "function"
    },
    {
      "inputs": [
        {
          "internalType": "address",
          "name": "player",
          "type": "address"
        },
        {
          "components": [
            {
              "internalType": "uint256",
              "name": "strength",
              "type": "uint256"
            },
            {
              "internalType": "uint256",
              "name": "stamina",
              "type": "uint256"
            },
            {
              "internalType": "uint256",
              "name": "speed",
              "type": "uint256"
            }
          ],
          "internalType": "struct Game.Fighter",
          "name": "fighter",
          "type": "tuple"
        }
      ],
      "name": "rewardPlayer",
      "outputs": [],
      "stateMutability": "nonpayable",
      "type": "function"
    },
    {
      "inputs": [],
      "name": "claimMyPrizes",
      "outputs": [],
      "stateMutability": "nonpayable",
      "type": "function"
    },
    {
      "inputs": [],
      "name": "getMyTokens",
      "outputs": [
        {
          "internalType": "uint256[]",
          "name": "",
          "type": "uint256[]"
        }
      ],
      "stateMutability": "view",
      "type": "function",
      "constant": true
    }
  ],
  "bytecode": "0x60c06040526040516200614838038062006148833981810160405281019062000029919062000442565b83836040518060400160405280600781526020017f5370617274616e000000000000000000000000000000000000000000000000008152506040518060400160405280600781526020017f5350415254414e000000000000000000000000000000000000000000000000008152508160009080519060200190620000af92919062000338565b508060019080519060200190620000c892919062000338565b5050508173ffffffffffffffffffffffffffffffffffffffff1660a08173ffffffffffffffffffffffffffffffffffffffff1660601b815250508073ffffffffffffffffffffffffffffffffffffffff1660808173ffffffffffffffffffffffffffffffffffffffff1660601b81525050505081600a60006101000a81548173ffffffffffffffffffffffffffffffffffffffff021916908373ffffffffffffffffffffffffffffffffffffffff160217905550600a60009054906101000a900473ffffffffffffffffffffffffffffffffffffffff1673ffffffffffffffffffffffffffffffffffffffff166321f8a7216040518163ffffffff1660e01b8152600401620001d790620004fb565b60206040518083038186803b158015620001f057600080fd5b505afa15801562000205573d6000803e3d6000fd5b505050506040513d601f19601f820116820180604052508101906200022b919062000416565b600b60006101000a81548173ffffffffffffffffffffffffffffffffffffffff021916908373ffffffffffffffffffffffffffffffffffffffff160217905550600073ffffffffffffffffffffffffffffffffffffffff16600b60009054906101000a900473ffffffffffffffffffffffffffffffffffffffff1673ffffffffffffffffffffffffffffffffffffffff16141562000300576040517f08c379a0000000000000000000000000000000000000000000000000000000008152600401620002f79062000516565b60405180910390fd5b8061013e8190555067016345785d8a000061013f819055506102584262000328919062000549565b6009819055505050505062000705565b8280546200034690620005ee565b90600052602060002090601f0160209004810192826200036a5760008555620003b6565b82601f106200038557805160ff1916838001178555620003b6565b82800160010185558215620003b6579182015b82811115620003b557825182559160200191906001019062000398565b5b509050620003c59190620003c9565b5090565b5b80821115620003e4576000816000905550600101620003ca565b5090565b600081519050620003f981620006d1565b92915050565b6000815190506200041081620006eb565b92915050565b6000602082840312156200042957600080fd5b60006200043984828501620003e8565b91505092915050565b600080600080608085870312156200045957600080fd5b60006200046987828801620003e8565b94505060206200047c87828801620003e8565b93505060406200048f87828801620003e8565b9250506060620004a287828801620003ff565b91505092959194509250565b7f50726f7879455243323073555344000000000000000000000000000000000000815250565b6000620004e360268362000538565b9150620004f08262000682565b604082019050919050565b60006020820190506200051160008301620004ae565b919050565b600060208201905081810360008301526200053181620004d4565b9050919050565b600082825260208201905092915050565b60006200055682620005e4565b91506200056383620005e4565b9250827fffffffffffffffffffffffffffffffffffffffffffffffffffffffffffffffff038211156200059b576200059a62000624565b5b828201905092915050565b6000620005b382620005c4565b9050919050565b6000819050919050565b600073ffffffffffffffffffffffffffffffffffffffff82169050919050565b6000819050919050565b600060028204905060018216806200060757607f821691505b602082108114156200061e576200061d62000653565b5b50919050565b7f4e487b7100000000000000000000000000000000000000000000000000000000600052601160045260246000fd5b7f4e487b7100000000000000000000000000000000000000000000000000000000600052602260045260246000fd5b7f534e58206973206d697373696e672066726f6d2053796e74686574697820726560008201527f736f6c7665720000000000000000000000000000000000000000000000000000602082015250565b620006dc81620005a6565b8114620006e857600080fd5b50565b620006f681620005ba565b81146200070257600080fd5b50565b60805160601c60a05160601c615a096200073f600039600081816111640152612c5b0152600081816125ee0152612c1f0152615a096000f3fe608060405234801561001057600080fd5b50600436106102325760003560e01c8063730ab83d11610130578063c557af8b116100b8578063e3d98bd61161007c578063e3d98bd614610681578063e985e9c5146106b1578063efbe1c1c146106e1578063f71d96cb146106ff578063fc2a88c31461072f57610232565b8063c557af8b146105ef578063c87b56dd146105f9578063d4f77b1c14610629578063def135b614610633578063e3ac5d261461066357610232565b806395d89b41116100ff57806395d89b411461054b578063a22cb46514610569578063b08e0e5d14610585578063b3b10fd3146105b5578063b88d4fde146105d357610232565b8063730ab83d146104c35780638b5b9ccc146104e157806392dfadf7146104ff57806394985ddd1461052f57610232565b8063302bcc57116101be5780635b3b136a116101825780635b3b136a1461040b5780636352211e146104295780636848b8a7146104595780636cbc2ded1461048957806370a082311461049357610232565b8063302bcc571461036557806339d167ee1461038357806342842e0e1461039f57806346a952db146103bb5780634d1cc491146103d957610232565b8063095ea7b311610205578063095ea7b3146102bf5780630fb5a6b4146102db578063153cd716146102f957806323b872dd14610317578063265aa6211461033357610232565b806301ffc9a7146102375780630539578f1461026757806306fdde0314610271578063081812fc1461028f575b600080fd5b610251600480360381019061024c9190613ffd565b61074d565b60405161025e9190614850565b60405180910390f35b61026f61082f565b005b6102796108dc565b604051610286919061490f565b60405180910390f35b6102a960048036038101906102a4919061404f565b61096e565b6040516102b6919061476d565b60405180910390f35b6102d960048036038101906102d49190613f33565b6109f3565b005b6102e3610b0b565b6040516102f09190614cbe565b60405180910390f35b610301610b11565b60405161030e91906148f4565b60405180910390f35b610331600480360381019061032c9190613df1565b610b37565b005b61034d6004803603810190610348919061404f565b610b97565b60405161035c93929190614dcf565b60405180910390f35b61036d610bc2565b60405161037a9190614cbe565b60405180910390f35b61039d60048036038101906103989190613ef7565b610bc8565b005b6103b960048036038101906103b49190613df1565b610c51565b005b6103c3610c71565b6040516103d09190614cbe565b60405180910390f35b6103f360048036038101906103ee9190613d8c565b610c78565b60405161040293929190614dcf565b60405180910390f35b610413610ca3565b604051610420919061482e565b60405180910390f35b610443600480360381019061043e919061404f565b610e84565b604051610450919061476d565b60405180910390f35b610473600480360381019061046e919061404f565b610f36565b6040516104809190614cbe565b60405180910390f35b610491610f4f565b005b6104ad60048036038101906104a89190613d8c565b610fec565b6040516104ba9190614cbe565b60405180910390f35b6104cb6110a4565b6040516104d8919061486b565b60405180910390f35b6104e96110ab565b6040516104f69190614812565b60405180910390f35b61051960048036038101906105149190613f98565b61112e565b604051610526919061476d565b60405180910390f35b61054960048036038101906105449190613fc1565b611162565b005b6105536111fe565b604051610560919061490f565b60405180910390f35b610583600480360381019061057e9190613ebb565b611290565b005b61059f600480360381019061059a9190613d8c565b611411565b6040516105ac9190614cbe565b60405180910390f35b6105bd61142a565b6040516105ca9190614cbe565b60405180910390f35b6105ed60048036038101906105e89190613e40565b611431565b005b6105f7611493565b005b610613600480360381019061060e919061404f565b6115a3565b604051610620919061490f565b60405180910390f35b6106316116f5565b005b61064d60048036038101906106489190613d8c565b611919565b60405161065a9190614850565b60405180910390f35b61066b61193a565b6040516106789190614cbe565b60405180910390f35b61069b60048036038101906106969190613d8c565b61193f565b6040516106a89190614850565b60405180910390f35b6106cb60048036038101906106c69190613db5565b611960565b6040516106d89190614850565b60405180910390f35b6106e96119f4565b6040516106f69190614cbe565b60405180910390f35b6107196004803603810190610714919061404f565b6119fa565b604051610726919061476d565b60405180910390f35b610737611a31565b604051610744919061486b565b60405180910390f35b60007f80ac58cd000000000000000000000000000000000000000000000000000000007bffffffffffffffffffffffffffffffffffffffffffffffffffffffff1916827bffffffffffffffffffffffffffffffffffffffffffffffffffffffff1916148061081857507f5b5e139f000000000000000000000000000000000000000000000000000000007bffffffffffffffffffffffffffffffffffffffffffffffffffffffff1916827bffffffffffffffffffffffffffffffffffffffffffffffffffffffff1916145b80610828575061082782611a38565b5b9050919050565b4260095410610873576040517f08c379a000000000000000000000000000000000000000000000000000000000815260040161086a90614a71565b60405180910390fd5b600061013b54116108b9576040517f08c379a00000000000000000000000000000000000000000000000000000000081526004016108b0906149d1565b60405180910390fd5b6000801b61013a819055506108d061013b54611aa2565b50600061013b81905550565b6060600080546108eb90615140565b80601f016020809104026020016040519081016040528092919081815260200182805461091790615140565b80156109645780601f1061093957610100808354040283529160200191610964565b820191906000526020600020905b81548152906001019060200180831161094757829003601f168201915b5050505050905090565b60006109798261213d565b6109b8576040517f08c379a00000000000000000000000000000000000000000000000000000000081526004016109af90614b51565b60405180910390fd5b6004600083815260200190815260200160002060009054906101000a900473ffffffffffffffffffffffffffffffffffffffff169050919050565b60006109fe82610e84565b90508073ffffffffffffffffffffffffffffffffffffffff168373ffffffffffffffffffffffffffffffffffffffff161415610a6f576040517f08c379a0000000000000000000000000000000000000000000000000000000008152600401610a6690614bf1565b60405180910390fd5b8073ffffffffffffffffffffffffffffffffffffffff16610a8e6121a9565b73ffffffffffffffffffffffffffffffffffffffff161480610abd5750610abc81610ab76121a9565b611960565b5b610afc576040517f08c379a0000000000000000000000000000000000000000000000000000000008152600401610af390614a91565b60405180910390fd5b610b0683836121b1565b505050565b61025881565b600a60009054906101000a900473ffffffffffffffffffffffffffffffffffffffff1681565b610b48610b426121a9565b8261226a565b610b87576040517f08c379a0000000000000000000000000000000000000000000000000000000008152600401610b7e90614c31565b60405180910390fd5b610b92838383612348565b505050565b6101446020528060005260406000206000915090508060000154908060010154908060020154905083565b600c5481565b610bd260086125a4565b6000610bde60086125ba565b9050610bea83826125c8565b816101446000838152602001908152602001600020600082015181600001556020820151816001015560408201518160020155905050600a61014560008381526020019081526020016000206000828254610c459190614f06565b92505081905550505050565b610c6c83838360405180602001604052806000815250611431565b505050565b61013b5481565b6101436020528060005260406000206000915090508060000154908060010154908060020154905083565b60606000610cb033610fec565b90506000811415610d3357600067ffffffffffffffff811115610cfc577f4e487b7100000000000000000000000000000000000000000000000000000000600052604160045260246000fd5b604051908082528060200260200182016040528015610d2a5781602001602082028036833780820191505090505b50915050610e81565b60008167ffffffffffffffff811115610d75577f4e487b7100000000000000000000000000000000000000000000000000000000600052604160045260246000fd5b604051908082528060200260200182016040528015610da35781602001602082028036833780820191505090505b5090506000610db260086125ba565b9050600080600190505b828111610e7857610dcc8161213d565b8015610e0b57503373ffffffffffffffffffffffffffffffffffffffff16610df382610e84565b73ffffffffffffffffffffffffffffffffffffffff16145b15610e655780848381518110610e4a577f4e487b7100000000000000000000000000000000000000000000000000000000600052603260045260246000fd5b6020026020010181815250508180610e61906151bd565b9250505b8080610e70906151bd565b915050610dbc565b50829450505050505b90565b6000806002600084815260200190815260200160002060009054906101000a900473ffffffffffffffffffffffffffffffffffffffff169050600073ffffffffffffffffffffffffffffffffffffffff168173ffffffffffffffffffffffffffffffffffffffff161415610f2d576040517f08c379a0000000000000000000000000000000000000000000000000000000008152600401610f2490614ad1565b60405180910390fd5b80915050919050565b6101456020528060005260406000206000915090505481565b4260095410610f93576040517f08c379a0000000000000000000000000000000000000000000000000000000008152600401610f8a90614a71565b60405180910390fd5b6000801b61013a5414610fdb576040517f08c379a0000000000000000000000000000000000000000000000000000000008152600401610fd290614971565b60405180910390fd5b610fe36125e6565b61013a81905550565b60008073ffffffffffffffffffffffffffffffffffffffff168273ffffffffffffffffffffffffffffffffffffffff16141561105d576040517f08c379a000000000000000000000000000000000000000000000000000000000815260040161105490614ab1565b60405180910390fd5b600360008373ffffffffffffffffffffffffffffffffffffffff1673ffffffffffffffffffffffffffffffffffffffff168152602001908152602001600020549050919050565b61013a5481565b6110b3613bd7565b600d61012c80602002604051908101604052809291908261012c8015611124576020028201915b8160009054906101000a900473ffffffffffffffffffffffffffffffffffffffff1673ffffffffffffffffffffffffffffffffffffffff16815260200190600101908083116110da575b5050505050905090565b61013d6020528060005260406000206000915054906101000a900473ffffffffffffffffffffffffffffffffffffffff1681565b7f000000000000000000000000000000000000000000000000000000000000000073ffffffffffffffffffffffffffffffffffffffff163373ffffffffffffffffffffffffffffffffffffffff16146111f0576040517f08c379a00000000000000000000000000000000000000000000000000000000081526004016111e790614bb1565b60405180910390fd5b6111fa82826126ec565b5050565b60606001805461120d90615140565b80601f016020809104026020016040519081016040528092919081815260200182805461123990615140565b80156112865780601f1061125b57610100808354040283529160200191611286565b820191906000526020600020905b81548152906001019060200180831161126957829003601f168201915b5050505050905090565b6112986121a9565b73ffffffffffffffffffffffffffffffffffffffff168273ffffffffffffffffffffffffffffffffffffffff161415611306576040517f08c379a00000000000000000000000000000000000000000000000000000000081526004016112fd90614a11565b60405180910390fd5b80600560006113136121a9565b73ffffffffffffffffffffffffffffffffffffffff1673ffffffffffffffffffffffffffffffffffffffff16815260200190815260200160002060008473ffffffffffffffffffffffffffffffffffffffff1673ffffffffffffffffffffffffffffffffffffffff16815260200190815260200160002060006101000a81548160ff0219169083151502179055508173ffffffffffffffffffffffffffffffffffffffff166113c06121a9565b73ffffffffffffffffffffffffffffffffffffffff167f17307eab39ab6107e8899845ad3d59bd9653f200f220920489ca2b5937696c31836040516114059190614850565b60405180910390a35050565b6101426020528060005260406000206000915090505481565b6101395481565b61144261143c6121a9565b8361226a565b611481576040517f08c379a000000000000000000000000000000000000000000000000000000000815260040161147890614c31565b60405180910390fd5b61148d8484848461280b565b50505050565b600061149e33610fec565b9050600081116114e3576040517f08c379a00000000000000000000000000000000000000000000000000000000081526004016114da906149b1565b60405180910390fd5b6000806114f060086125ba565b90506000600190505b81811161159d576115098161213d565b801561154857503373ffffffffffffffffffffffffffffffffffffffff1661153082610e84565b73ffffffffffffffffffffffffffffffffffffffff16145b1561158a576101456000828152602001908152602001600020548361156d9190614f06565b925060006101456000838152602001908152602001600020819055505b8080611595906151bd565b9150506114f9565b50505050565b60606115ae8261213d565b6115ed576040517f08c379a00000000000000000000000000000000000000000000000000000000081526004016115e490614b31565b60405180910390fd5b600060066000848152602001908152602001600020805461160d90615140565b80601f016020809104026020016040519081016040528092919081815260200182805461163990615140565b80156116865780601f1061165b57610100808354040283529160200191611686565b820191906000526020600020905b81548152906001019060200180831161166957829003601f168201915b505050505090506000611697612867565b90506000815114156116ad5781925050506116f0565b6000825111156116e25780826040516020016116ca929190614749565b604051602081830303815290604052925050506116f0565b6116eb8461287e565b925050505b919050565b4260095411611739576040517f08c379a000000000000000000000000000000000000000000000000000000000815260040161173090614c11565b60405180910390fd5b61012c600c541061177f576040517f08c379a000000000000000000000000000000000000000000000000000000000815260040161177690614af1565b60405180910390fd5b6000151561014060003373ffffffffffffffffffffffffffffffffffffffff1673ffffffffffffffffffffffffffffffffffffffff16815260200190815260200160002060009054906101000a900460ff16151514611813576040517f08c379a000000000000000000000000000000000000000000000000000000000815260040161180a90614bd1565b60405180910390fd5b600061181d6125e6565b90503361013d600083815260200190815260200160002060006101000a81548173ffffffffffffffffffffffffffffffffffffffff021916908373ffffffffffffffffffffffffffffffffffffffff1602179055508061013c81905550600161014160003373ffffffffffffffffffffffffffffffffffffffff1673ffffffffffffffffffffffffffffffffffffffff16815260200190815260200160002060006101000a81548160ff0219169083151502179055503373ffffffffffffffffffffffffffffffffffffffff167f31e760aa525306aba638a784082a013b6a1cc0a9a1789f3f22281c0453b10b1f60405160405180910390a250565b6101416020528060005260406000206000915054906101000a900460ff1681565b600a81565b6101406020528060005260406000206000915054906101000a900460ff1681565b6000600560008473ffffffffffffffffffffffffffffffffffffffff1673ffffffffffffffffffffffffffffffffffffffff16815260200190815260200160002060008373ffffffffffffffffffffffffffffffffffffffff1673ffffffffffffffffffffffffffffffffffffffff16815260200190815260200160002060009054906101000a900460ff16905092915050565b60095481565b600d8161012c8110611a0b57600080fd5b016000915054906101000a900473ffffffffffffffffffffffffffffffffffffffff1681565b61013c5481565b60007f01ffc9a7000000000000000000000000000000000000000000000000000000007bffffffffffffffffffffffffffffffffffffffffffffffffffffffff1916827bffffffffffffffffffffffffffffffffffffffffffffffffffffffff1916149050919050565b60004260095410611ae8576040517f08c379a0000000000000000000000000000000000000000000000000000000008152600401611adf90614a71565b60405180910390fd5b6000600c541415611b105761025842611b019190614f06565b60098190555060019050612138565b6101396000815480929190611b24906151bd565b91905055506000611b33613bfb565b611b3b613bfb565b600080600094505b61012c851015611dd057600d8561012c8110611b88577f4e487b7100000000000000000000000000000000000000000000000000000000600052603260045260246000fd5b0160009054906101000a900473ffffffffffffffffffffffffffffffffffffffff169150600073ffffffffffffffffffffffffffffffffffffffff168273ffffffffffffffffffffffffffffffffffffffff1614611dbd5761014360008373ffffffffffffffffffffffffffffffffffffffff1673ffffffffffffffffffffffffffffffffffffffff16815260200190815260200160002060405180606001604052908160008201548152602001600182015481526020016002820154815250509250611c59878661013954612925565b9350611c658385612aa1565b905080158015611c7757506001600c54115b15611d6a57600c6000815480929190611c8f90615116565b9190505550600061014060008473ffffffffffffffffffffffffffffffffffffffff1673ffffffffffffffffffffffffffffffffffffffff16815260200190815260200160002060006101000a81548160ff0219169083151502179055506000600d8661012c8110611d2a577f4e487b7100000000000000000000000000000000000000000000000000000000600052603260045260246000fd5b0160006101000a81548173ffffffffffffffffffffffffffffffffffffffff021916908373ffffffffffffffffffffffffffffffffffffffff1602179055505b8173ffffffffffffffffffffffffffffffffffffffff167fc35208bb8c2b0b1874dc26845dfcd8230429335471b9ef5f5866666ff22955e8848684604051611db493929190614c6c565b60405180910390a25b8480611dc8906151bd565b955050611b43565b6001600c5414156120eb57600094505b61012c851015611f6957600073ffffffffffffffffffffffffffffffffffffffff16600d8661012c8110611e3d577f4e487b7100000000000000000000000000000000000000000000000000000000600052603260045260246000fd5b0160009054906101000a900473ffffffffffffffffffffffffffffffffffffffff1673ffffffffffffffffffffffffffffffffffffffff1614611f5657600d8561012c8110611eb5577f4e487b7100000000000000000000000000000000000000000000000000000000600052603260045260246000fd5b0160009054906101000a900473ffffffffffffffffffffffffffffffffffffffff1691506000600d8661012c8110611f16577f4e487b7100000000000000000000000000000000000000000000000000000000600052603260045260246000fd5b0160006101000a81548173ffffffffffffffffffffffffffffffffffffffff021916908373ffffffffffffffffffffffffffffffffffffffff1602179055505b8480611f61906151bd565b955050611de0565b600061014060008473ffffffffffffffffffffffffffffffffffffffff1673ffffffffffffffffffffffffffffffffffffffff16815260200190815260200160002060006101000a81548160ff0219169083151502179055506120348261014360008573ffffffffffffffffffffffffffffffffffffffff1673ffffffffffffffffffffffffffffffffffffffff1681526020019081526020016000206040518060600160405290816000820154815260200160018201548152602001600282015481525050610bc8565b8173ffffffffffffffffffffffffffffffffffffffff167fbb40a919143de1622ba207e1b6af3551f818565ee34c464ee259477dcd6a7f8a61014360008573ffffffffffffffffffffffffffffffffffffffff1673ffffffffffffffffffffffffffffffffffffffff1681526020019081526020016000206040516120b99190614ca3565b60405180910390a26000600c81905550600061013981905550610258426120e09190614f06565b60098190555061212e565b6120f3610f4f565b7f82885b7678f38387f45a44bc45ad9fcd8b91dca70c659f03724984243cf99a84610139546040516121259190614cbe565b60405180910390a15b6001955050505050505b919050565b60008073ffffffffffffffffffffffffffffffffffffffff166002600084815260200190815260200160002060009054906101000a900473ffffffffffffffffffffffffffffffffffffffff1673ffffffffffffffffffffffffffffffffffffffff1614159050919050565b600033905090565b816004600083815260200190815260200160002060006101000a81548173ffffffffffffffffffffffffffffffffffffffff021916908373ffffffffffffffffffffffffffffffffffffffff160217905550808273ffffffffffffffffffffffffffffffffffffffff1661222483610e84565b73ffffffffffffffffffffffffffffffffffffffff167f8c5be1e5ebec7d5bd14f71427d1e84f3dd0314c0f7b2291e5b200ac8c7c3b92560405160405180910390a45050565b60006122758261213d565b6122b4576040517f08c379a00000000000000000000000000000000000000000000000000000000081526004016122ab90614a51565b60405180910390fd5b60006122bf83610e84565b90508073ffffffffffffffffffffffffffffffffffffffff168473ffffffffffffffffffffffffffffffffffffffff16148061232e57508373ffffffffffffffffffffffffffffffffffffffff166123168461096e565b73ffffffffffffffffffffffffffffffffffffffff16145b8061233f575061233e8185611960565b5b91505092915050565b8273ffffffffffffffffffffffffffffffffffffffff1661236882610e84565b73ffffffffffffffffffffffffffffffffffffffff16146123be576040517f08c379a00000000000000000000000000000000000000000000000000000000081526004016123b590614b71565b60405180910390fd5b600073ffffffffffffffffffffffffffffffffffffffff168273ffffffffffffffffffffffffffffffffffffffff16141561242e576040517f08c379a0000000000000000000000000000000000000000000000000000000008152600401612425906149f1565b60405180910390fd5b612439838383612bbb565b6124446000826121b1565b6001600360008573ffffffffffffffffffffffffffffffffffffffff1673ffffffffffffffffffffffffffffffffffffffff16815260200190815260200160002060008282546124949190614f8d565b925050819055506001600360008473ffffffffffffffffffffffffffffffffffffffff1673ffffffffffffffffffffffffffffffffffffffff16815260200190815260200160002060008282546124eb9190614f06565b92505081905550816002600083815260200190815260200160002060006101000a81548173ffffffffffffffffffffffffffffffffffffffff021916908373ffffffffffffffffffffffffffffffffffffffff160217905550808273ffffffffffffffffffffffffffffffffffffffff168473ffffffffffffffffffffffffffffffffffffffff167fddf252ad1be2c89b69c2b068fc378daa952ba7f163c4a11628f55a4df523b3ef60405160405180910390a4505050565b6001816000016000828254019250508190555050565b600081600001549050919050565b6125e2828260405180602001604052806000815250612bc0565b5050565b600061013f547f000000000000000000000000000000000000000000000000000000000000000073ffffffffffffffffffffffffffffffffffffffff166370a08231306040518263ffffffff1660e01b8152600401612645919061476d565b60206040518083038186803b15801561265d57600080fd5b505afa158015612671573d6000803e3d6000fd5b505050506040513d601f19601f820116820180604052508101906126959190614078565b10156126d6576040517f08c379a00000000000000000000000000000000000000000000000000000000081526004016126cd90614a31565b60405180910390fd5b6126e761013e5461013f5442612c1b565b905090565b61013a54821415612704578061013b81905550612807565b600073ffffffffffffffffffffffffffffffffffffffff1661013d600084815260200190815260200160002060009054906101000a900473ffffffffffffffffffffffffffffffffffffffff1673ffffffffffffffffffffffffffffffffffffffff1614156127a8576040517f08c379a000000000000000000000000000000000000000000000000000000000815260040161279f90614951565b60405180910390fd5b6127b28282612d7c565b600061013d600084815260200190815260200160002060006101000a81548173ffffffffffffffffffffffffffffffffffffffff021916908373ffffffffffffffffffffffffffffffffffffffff1602179055505b5050565b612816848484612348565b61282284848484613147565b612861576040517f08c379a000000000000000000000000000000000000000000000000000000000815260040161285890614931565b60405180910390fd5b50505050565b606060405180602001604052806000815250905090565b60606128898261213d565b6128c8576040517f08c379a00000000000000000000000000000000000000000000000000000000081526004016128bf90614b91565b60405180910390fd5b60006128d2612867565b905060008151116128f2576040518060200160405280600081525061291d565b806128fc846132de565b60405160200161290d929190614749565b6040516020818303038152906040525b915050919050565b61292d613bfb565b60405180606001604052806129a98461299b601e61298d60468b61012c8c6129559190614f06565b604051602001612966929190614da6565b6040516020818303038152906040528051906020012060001c61348b90919063ffffffff16565b6134a190919063ffffffff16565b6134a190919063ffffffff16565b8152602001612a1f84612a11601e612a0360468b6101908c6129cb9190614f06565b6040516020016129dc929190614da6565b6040516020818303038152906040528051906020012060001c61348b90919063ffffffff16565b6134a190919063ffffffff16565b6134a190919063ffffffff16565b8152602001612a9584612a87601e612a7960468b6101f48c612a419190614f06565b604051602001612a52929190614da6565b6040516020818303038152906040528051906020012060001c61348b90919063ffffffff16565b6134a190919063ffffffff16565b6134a190919063ffffffff16565b81525090509392505050565b6000806000846000015184600001511115612adc5784600001518460000151612aca9190614f8d565b82612ad59190614f06565b9150612afe565b83600001518560000151612af09190614f8d565b81612afb9190614f06565b90505b846020015184602001511115612b345784602001518460200151612b229190614f8d565b82612b2d9190614f06565b9150612b56565b83602001518560200151612b489190614f8d565b81612b539190614f06565b90505b846040015184604001511115612b8c5784604001518460400151612b7a9190614f8d565b82612b859190614f06565b9150612bae565b83604001518560400151612ba09190614f8d565b81612bab9190614f06565b90505b8181119250505092915050565b505050565b612bca83836134b7565b612bd76000848484613147565b612c16576040517f08c379a0000000000000000000000000000000000000000000000000000000008152600401612c0d90614931565b60405180910390fd5b505050565b60007f000000000000000000000000000000000000000000000000000000000000000073ffffffffffffffffffffffffffffffffffffffff16634000aea07f0000000000000000000000000000000000000000000000000000000000000000858786604051602001612c8e929190614886565b6040516020818303038152906040526040518463ffffffff1660e01b8152600401612cbb939291906147d4565b602060405180830381600087803b158015612cd557600080fd5b505af1158015612ce9573d6000803e3d6000fd5b505050506040513d601f19601f82011682018060405250810190612d0d9190613f6f565b506000612d2f858430600760008a815260200190815260200160002054613685565b905060016007600087815260200190815260200160002054612d519190614f06565b6007600087815260200190815260200160002081905550612d7285826136c1565b9150509392505050565b600061013d600084815260200190815260200160002060009054906101000a900473ffffffffffffffffffffffffffffffffffffffff16905060006040518060600160405280612de96001612ddb60638861348b90919063ffffffff16565b6134a190919063ffffffff16565b8152602001612e416001612e336063886001604051602001612e0c929190614cd9565b6040516020818303038152906040528051906020012060001c61348b90919063ffffffff16565b6134a190919063ffffffff16565b8152602001612e996001612e8b6063886002604051602001612e64929190614d02565b6040516020818303038152906040528051906020012060001c61348b90919063ffffffff16565b6134a190919063ffffffff16565b81525090506000600c541115612eb357612eb2836136f4565b5b60008061014260008573ffffffffffffffffffffffffffffffffffffffff1673ffffffffffffffffffffffffffffffffffffffff168152602001908152602001600020541115612f455761014260008473ffffffffffffffffffffffffffffffffffffffff1673ffffffffffffffffffffffffffffffffffffffff168152602001908152602001600020549050612f63565b600c549050600c6000815480929190612f5d906151bd565b91905055505b82600d8261012c8110612f9f577f4e487b7100000000000000000000000000000000000000000000000000000000600052603260045260246000fd5b0160006101000a81548173ffffffffffffffffffffffffffffffffffffffff021916908373ffffffffffffffffffffffffffffffffffffffff160217905550600161014060008573ffffffffffffffffffffffffffffffffffffffff1673ffffffffffffffffffffffffffffffffffffffff16815260200190815260200160002060006101000a81548160ff021916908315150217905550600061014160008573ffffffffffffffffffffffffffffffffffffffff1673ffffffffffffffffffffffffffffffffffffffff16815260200190815260200160002060006101000a81548160ff0219169083151502179055508161014360008573ffffffffffffffffffffffffffffffffffffffff1673ffffffffffffffffffffffffffffffffffffffff1681526020019081526020016000206000820151816000015560208201518160010155604082015181600201559050508273ffffffffffffffffffffffffffffffffffffffff167fa77abcce46e47961695d5ad76c28e86bbaa0218c431df50a3437f0041f568149836040516131389190614c51565b60405180910390a25050505050565b60006131688473ffffffffffffffffffffffffffffffffffffffff16613bc4565b156132d1578373ffffffffffffffffffffffffffffffffffffffff1663150b7a026131916121a9565b8786866040518563ffffffff1660e01b81526004016131b39493929190614788565b602060405180830381600087803b1580156131cd57600080fd5b505af19250505080156131fe57506040513d601f19601f820116820180604052508101906131fb9190614026565b60015b613281573d806000811461322e576040519150601f19603f3d011682016040523d82523d6000602084013e613233565b606091505b50600081511415613279576040517f08c379a000000000000000000000000000000000000000000000000000000000815260040161327090614931565b60405180910390fd5b805181602001fd5b63150b7a0260e01b7bffffffffffffffffffffffffffffffffffffffffffffffffffffffff1916817bffffffffffffffffffffffffffffffffffffffffffffffffffffffff1916149150506132d6565b600190505b949350505050565b60606000821415613326576040518060400160405280600181526020017f30000000000000000000000000000000000000000000000000000000000000008152509050613486565b600082905060005b60008214613358578080613341906151bd565b915050600a826133519190614f5c565b915061332e565b60008167ffffffffffffffff81111561339a577f4e487b7100000000000000000000000000000000000000000000000000000000600052604160045260246000fd5b6040519080825280601f01601f1916602001820160405280156133cc5781602001600182028036833780820191505090505b5090505b6000851461347f576001826133e59190614f8d565b9150600a856133f4919061521a565b60306134009190614f06565b60f81b81838151811061343c577f4e487b7100000000000000000000000000000000000000000000000000000000600052603260045260246000fd5b60200101907effffffffffffffffffffffffffffffffffffffffffffffffffffffffffffff1916908160001a905350600a856134789190614f5c565b94506133d0565b8093505050505b919050565b60008183613499919061521a565b905092915050565b600081836134af9190614f06565b905092915050565b600073ffffffffffffffffffffffffffffffffffffffff168273ffffffffffffffffffffffffffffffffffffffff161415613527576040517f08c379a000000000000000000000000000000000000000000000000000000000815260040161351e90614b11565b60405180910390fd5b6135308161213d565b15613570576040517f08c379a000000000000000000000000000000000000000000000000000000000815260040161356790614991565b60405180910390fd5b61357c60008383612bbb565b6001600360008473ffffffffffffffffffffffffffffffffffffffff1673ffffffffffffffffffffffffffffffffffffffff16815260200190815260200160002060008282546135cc9190614f06565b92505081905550816002600083815260200190815260200160002060006101000a81548173ffffffffffffffffffffffffffffffffffffffff021916908373ffffffffffffffffffffffffffffffffffffffff160217905550808273ffffffffffffffffffffffffffffffffffffffff16600073ffffffffffffffffffffffffffffffffffffffff167fddf252ad1be2c89b69c2b068fc378daa952ba7f163c4a11628f55a4df523b3ef60405160405180910390a45050565b60008484848460405160200161369e94939291906148af565b6040516020818303038152906040528051906020012060001c9050949350505050565b600082826040516020016136d692919061471d565b60405160208183030381529060405280519060200120905092915050565b6000806000806000806001600c5411156137205761371d600c548861348b90919063ffffffff16565b90505b60006101436000600d8461012c8110613762577f4e487b7100000000000000000000000000000000000000000000000000000000600052603260045260246000fd5b0160009054906101000a900473ffffffffffffffffffffffffffffffffffffffff1673ffffffffffffffffffffffffffffffffffffffff1673ffffffffffffffffffffffffffffffffffffffff168152602001908152602001600020604051806060016040529081600082015481526020016001820154815260200160028201548152505090506138296050896004604051602001613802929190614d2b565b6040516020818303038152906040528051906020012060001c61348b90919063ffffffff16565b935080604001518411156138f05783816040018181525050600d8261012c811061387c577f4e487b7100000000000000000000000000000000000000000000000000000000600052603260045260246000fd5b0160009054906101000a900473ffffffffffffffffffffffffffffffffffffffff1673ffffffffffffffffffffffffffffffffffffffff167fdf38bd655d981e45c24c2448dc2f3b39c23c69401cb47442ec3cf73bf73a2c07826040516138e39190614c51565b60405180910390a2613afc565b6139306050896005604051602001613909929190614d54565b6040516020818303038152906040528051906020012060001c61348b90919063ffffffff16565b945080602001518511156139f75784816020018181525050600d8261012c8110613983577f4e487b7100000000000000000000000000000000000000000000000000000000600052603260045260246000fd5b0160009054906101000a900473ffffffffffffffffffffffffffffffffffffffff1673ffffffffffffffffffffffffffffffffffffffff167fdf38bd655d981e45c24c2448dc2f3b39c23c69401cb47442ec3cf73bf73a2c07826040516139ea9190614c51565b60405180910390a2613afb565b613a376050896006604051602001613a10929190614d7d565b6040516020818303038152906040528051906020012060001c61348b90919063ffffffff16565b95508060000151861115613afa5785816000018181525050600d8261012c8110613a8a577f4e487b7100000000000000000000000000000000000000000000000000000000600052603260045260246000fd5b0160009054906101000a900473ffffffffffffffffffffffffffffffffffffffff1673ffffffffffffffffffffffffffffffffffffffff167fdf38bd655d981e45c24c2448dc2f3b39c23c69401cb47442ec3cf73bf73a2c0782604051613af19190614c51565b60405180910390a25b5b5b806101436000600d8561012c8110613b3d577f4e487b7100000000000000000000000000000000000000000000000000000000600052603260045260246000fd5b0160009054906101000a900473ffffffffffffffffffffffffffffffffffffffff1673ffffffffffffffffffffffffffffffffffffffff1673ffffffffffffffffffffffffffffffffffffffff1681526020019081526020016000206000820151816000015560208201518160010155604082015181600201559050505050505050505050565b600080823b905060008111915050919050565b60405180612580016040528061012c90602082028036833780820191505090505090565b60405180606001604052806000815260200160008152602001600081525090565b6000613c2f613c2a84614e2b565b614e06565b905082815260208101848484011115613c4757600080fd5b613c528482856150d4565b509392505050565b600081359050613c6981615960565b92915050565b600081359050613c7e81615977565b92915050565b600081519050613c9381615977565b92915050565b600081359050613ca88161598e565b92915050565b600081359050613cbd816159a5565b92915050565b600081519050613cd2816159a5565b92915050565b600082601f830112613ce957600080fd5b8135613cf9848260208601613c1c565b91505092915050565b600060608284031215613d1457600080fd5b613d1e6060614e06565b90506000613d2e84828501613d62565b6000830152506020613d4284828501613d62565b6020830152506040613d5684828501613d62565b60408301525092915050565b600081359050613d71816159bc565b92915050565b600081519050613d86816159bc565b92915050565b600060208284031215613d9e57600080fd5b6000613dac84828501613c5a565b91505092915050565b60008060408385031215613dc857600080fd5b6000613dd685828601613c5a565b9250506020613de785828601613c5a565b9150509250929050565b600080600060608486031215613e0657600080fd5b6000613e1486828701613c5a565b9350506020613e2586828701613c5a565b9250506040613e3686828701613d62565b9150509250925092565b60008060008060808587031215613e5657600080fd5b6000613e6487828801613c5a565b9450506020613e7587828801613c5a565b9350506040613e8687828801613d62565b925050606085013567ffffffffffffffff811115613ea357600080fd5b613eaf87828801613cd8565b91505092959194509250565b60008060408385031215613ece57600080fd5b6000613edc85828601613c5a565b9250506020613eed85828601613c6f565b9150509250929050565b60008060808385031215613f0a57600080fd5b6000613f1885828601613c5a565b9250506020613f2985828601613d02565b9150509250929050565b60008060408385031215613f4657600080fd5b6000613f5485828601613c5a565b9250506020613f6585828601613d62565b9150509250929050565b600060208284031215613f8157600080fd5b6000613f8f84828501613c84565b91505092915050565b600060208284031215613faa57600080fd5b6000613fb884828501613c99565b91505092915050565b60008060408385031215613fd457600080fd5b6000613fe285828601613c99565b9250506020613ff385828601613d62565b9150509250929050565b60006020828403121561400f57600080fd5b600061401d84828501613cae565b91505092915050565b60006020828403121561403857600080fd5b600061404684828501613cc3565b91505092915050565b60006020828403121561406157600080fd5b600061406f84828501613d62565b91505092915050565b60006020828403121561408a57600080fd5b600061409884828501613d77565b91505092915050565b60006140ad83836140d1565b60208301905092915050565b60006140c583836146e8565b60208301905092915050565b6140da81614fcb565b82525050565b6140e981614fcb565b82525050565b6140f881614e76565b6141028184614ebd565b925061410d82614e5c565b8060005b8381101561413e57815161412587826140a1565b965061413083614ea3565b925050600181019050614111565b505050505050565b600061415182614e82565b61415b8185614ec8565b935061416683614e66565b8060005b8381101561419757815161417e88826140b9565b975061418983614eb0565b92505060018101905061416a565b5085935050505092915050565b6141ad81614fdd565b82525050565b6141bc81614fe9565b82525050565b6141d36141ce82614fe9565b615206565b82525050565b60006141e482614e8d565b6141ee8185614ed9565b93506141fe8185602086016150e3565b61420781615307565b840191505092915050565b61421b81615056565b82525050565b61422a8161507a565b82525050565b6142398161508c565b82525050565b6142488161509e565b82525050565b614257816150b0565b82525050565b614266816150c2565b82525050565b600061427782614e98565b6142818185614eea565b93506142918185602086016150e3565b61429a81615307565b840191505092915050565b60006142b082614e98565b6142ba8185614efb565b93506142ca8185602086016150e3565b80840191505092915050565b60006142e3603283614eea565b91506142ee82615325565b604082019050919050565b6000614306601a83614eea565b915061431182615374565b602082019050919050565b6000614329602483614eea565b91506143348261539d565b604082019050919050565b600061434c601c83614eea565b9150614357826153ec565b602082019050919050565b600061436f601b83614eea565b915061437a82615415565b602082019050919050565b6000614392601d83614eea565b915061439d8261543e565b602082019050919050565b60006143b5602483614eea565b91506143c082615467565b604082019050919050565b60006143d8601983614eea565b91506143e3826154b6565b602082019050919050565b60006143fb602b83614eea565b9150614406826154df565b604082019050919050565b600061441e602c83614eea565b91506144298261552e565b604082019050919050565b6000614441601783614eea565b915061444c8261557d565b602082019050919050565b6000614464603883614eea565b915061446f826155a6565b604082019050919050565b6000614487602a83614eea565b9150614492826155f5565b604082019050919050565b60006144aa602983614eea565b91506144b582615644565b604082019050919050565b60006144cd602383614eea565b91506144d882615693565b604082019050919050565b60006144f0602083614eea565b91506144fb826156e2565b602082019050919050565b6000614513603183614eea565b915061451e8261570b565b604082019050919050565b6000614536602c83614eea565b91506145418261575a565b604082019050919050565b6000614559602983614eea565b9150614564826157a9565b604082019050919050565b600061457c602f83614eea565b9150614587826157f8565b604082019050919050565b600061459f601f83614eea565b91506145aa82615847565b602082019050919050565b60006145c2602083614eea565b91506145cd82615870565b602082019050919050565b60006145e5602183614eea565b91506145f082615899565b604082019050919050565b6000614608601783614eea565b9150614613826158e8565b602082019050919050565b600061462b603183614eea565b915061463682615911565b604082019050919050565b60608201600082015161465760008501826146e8565b50602082015161466a60208501826146e8565b50604082015161467d60408501826146e8565b50505050565b60608201600080830154905061469881615172565b6146a560008601826146e8565b50600183015490506146b681615172565b6146c360208601826146e8565b50600283015490506146d481615172565b6146e160408601826146e8565b5050505050565b6146f18161503f565b82525050565b6147008161503f565b82525050565b6147176147128261503f565b615210565b82525050565b600061472982856141c2565b6020820191506147398284614706565b6020820191508190509392505050565b600061475582856142a5565b915061476182846142a5565b91508190509392505050565b600060208201905061478260008301846140e0565b92915050565b600060808201905061479d60008301876140e0565b6147aa60208301866140e0565b6147b760408301856146f7565b81810360608301526147c981846141d9565b905095945050505050565b60006060820190506147e960008301866140e0565b6147f660208301856146f7565b818103604083015261480881846141d9565b9050949350505050565b60006125808201905061482860008301846140ef565b92915050565b600060208201905081810360008301526148488184614146565b905092915050565b600060208201905061486560008301846141a4565b92915050565b600060208201905061488060008301846141b3565b92915050565b600060408201905061489b60008301856141b3565b6148a860208301846146f7565b9392505050565b60006080820190506148c460008301876141b3565b6148d160208301866146f7565b6148de60408301856140e0565b6148eb60608301846146f7565b95945050505050565b60006020820190506149096000830184614212565b92915050565b60006020820190508181036000830152614929818461426c565b905092915050565b6000602082019050818103600083015261494a816142d6565b9050919050565b6000602082019050818103600083015261496a816142f9565b9050919050565b6000602082019050818103600083015261498a8161431c565b9050919050565b600060208201905081810360008301526149aa8161433f565b9050919050565b600060208201905081810360008301526149ca81614362565b9050919050565b600060208201905081810360008301526149ea81614385565b9050919050565b60006020820190508181036000830152614a0a816143a8565b9050919050565b60006020820190508181036000830152614a2a816143cb565b9050919050565b60006020820190508181036000830152614a4a816143ee565b9050919050565b60006020820190508181036000830152614a6a81614411565b9050919050565b60006020820190508181036000830152614a8a81614434565b9050919050565b60006020820190508181036000830152614aaa81614457565b9050919050565b60006020820190508181036000830152614aca8161447a565b9050919050565b60006020820190508181036000830152614aea8161449d565b9050919050565b60006020820190508181036000830152614b0a816144c0565b9050919050565b60006020820190508181036000830152614b2a816144e3565b9050919050565b60006020820190508181036000830152614b4a81614506565b9050919050565b60006020820190508181036000830152614b6a81614529565b9050919050565b60006020820190508181036000830152614b8a8161454c565b9050919050565b60006020820190508181036000830152614baa8161456f565b9050919050565b60006020820190508181036000830152614bca81614592565b9050919050565b60006020820190508181036000830152614bea816145b5565b9050919050565b60006020820190508181036000830152614c0a816145d8565b9050919050565b60006020820190508181036000830152614c2a816145fb565b9050919050565b60006020820190508181036000830152614c4a8161461e565b9050919050565b6000606082019050614c666000830184614641565b92915050565b600060e082019050614c816000830186614641565b614c8e6060830185614641565b614c9b60c08301846141a4565b949350505050565b6000606082019050614cb86000830184614683565b92915050565b6000602082019050614cd360008301846146f7565b92915050565b6000604082019050614cee60008301856146f7565b614cfb6020830184614221565b9392505050565b6000604082019050614d1760008301856146f7565b614d246020830184614230565b9392505050565b6000604082019050614d4060008301856146f7565b614d4d602083018461423f565b9392505050565b6000604082019050614d6960008301856146f7565b614d76602083018461424e565b9392505050565b6000604082019050614d9260008301856146f7565b614d9f602083018461425d565b9392505050565b6000604082019050614dbb60008301856146f7565b614dc860208301846146f7565b9392505050565b6000606082019050614de460008301866146f7565b614df160208301856146f7565b614dfe60408301846146f7565b949350505050565b6000614e10614e21565b9050614e1c828261518c565b919050565b6000604051905090565b600067ffffffffffffffff821115614e4657614e456152d8565b5b614e4f82615307565b9050602081019050919050565b6000819050919050565b6000819050602082019050919050565b600061012c9050919050565b600081519050919050565b600081519050919050565b600081519050919050565b6000602082019050919050565b6000602082019050919050565b600081905092915050565b600082825260208201905092915050565b600082825260208201905092915050565b600082825260208201905092915050565b600081905092915050565b6000614f118261503f565b9150614f1c8361503f565b9250827fffffffffffffffffffffffffffffffffffffffffffffffffffffffffffffffff03821115614f5157614f5061524b565b5b828201905092915050565b6000614f678261503f565b9150614f728361503f565b925082614f8257614f8161527a565b5b828204905092915050565b6000614f988261503f565b9150614fa38361503f565b925082821015614fb657614fb561524b565b5b828203905092915050565b6000819050919050565b6000614fd68261501f565b9050919050565b60008115159050919050565b6000819050919050565b60007fffffffff0000000000000000000000000000000000000000000000000000000082169050919050565b600073ffffffffffffffffffffffffffffffffffffffff82169050919050565b6000819050919050565b600060ff82169050919050565b600061506182615068565b9050919050565b60006150738261501f565b9050919050565b600061508582615049565b9050919050565b600061509782615049565b9050919050565b60006150a982615049565b9050919050565b60006150bb82615049565b9050919050565b60006150cd82615049565b9050919050565b82818337600083830152505050565b60005b838110156151015780820151818401526020810190506150e6565b83811115615110576000848401525b50505050565b60006151218261503f565b915060008214156151355761513461524b565b5b600182039050919050565b6000600282049050600182168061515857607f821691505b6020821081141561516c5761516b6152a9565b5b50919050565b600061518561518083615318565b614fc1565b9050919050565b61519582615307565b810181811067ffffffffffffffff821117156151b4576151b36152d8565b5b80604052505050565b60006151c88261503f565b91507fffffffffffffffffffffffffffffffffffffffffffffffffffffffffffffffff8214156151fb576151fa61524b565b5b600182019050919050565b6000819050919050565b6000819050919050565b60006152258261503f565b91506152308361503f565b9250826152405761523f61527a565b5b828206905092915050565b7f4e487b7100000000000000000000000000000000000000000000000000000000600052601160045260246000fd5b7f4e487b7100000000000000000000000000000000000000000000000000000000600052601260045260246000fd5b7f4e487b7100000000000000000000000000000000000000000000000000000000600052602260045260246000fd5b7f4e487b7100000000000000000000000000000000000000000000000000000000600052604160045260246000fd5b6000601f19601f8301169050919050565b60008160001c9050919050565b7f4552433732313a207472616e7366657220746f206e6f6e20455243373231526560008201527f63656976657220696d706c656d656e7465720000000000000000000000000000602082015250565b7f5265717565737420494420646f6573206e6f742065786973742e000000000000600082015250565b7f47616d6520656e642068617320616c7265616479206265656e2072657175657360008201527f7465642e00000000000000000000000000000000000000000000000000000000602082015250565b7f4552433732313a20746f6b656e20616c7265616479206d696e74656400000000600082015250565b7f596f7520646f206e6f74206f776e20616e79207469636b6574732e0000000000600082015250565b7f52616e646f6d6e657373206d7573742062652067656e6572617465642e000000600082015250565b7f4552433732313a207472616e7366657220746f20746865207a65726f2061646460008201527f7265737300000000000000000000000000000000000000000000000000000000602082015250565b7f4552433732313a20617070726f766520746f2063616c6c657200000000000000600082015250565b7f4e6f7420656e6f756768204c494e4b202d2066696c6c20636f6e74726163742060008201527f7769746820666175636574000000000000000000000000000000000000000000602082015250565b7f4552433732313a206f70657261746f7220717565727920666f72206e6f6e657860008201527f697374656e7420746f6b656e0000000000000000000000000000000000000000602082015250565b7f47616d65206d757374206578706972652066697273742e000000000000000000600082015250565b7f4552433732313a20617070726f76652063616c6c6572206973206e6f74206f7760008201527f6e6572206e6f7220617070726f76656420666f7220616c6c0000000000000000602082015250565b7f4552433732313a2062616c616e636520717565727920666f7220746865207a6560008201527f726f206164647265737300000000000000000000000000000000000000000000602082015250565b7f4552433732313a206f776e657220717565727920666f72206e6f6e657869737460008201527f656e7420746f6b656e0000000000000000000000000000000000000000000000602082015250565b7f4f6e6c792033303020666967687465727320616c6c6f7765642070657220676160008201527f6d652e0000000000000000000000000000000000000000000000000000000000602082015250565b7f4552433732313a206d696e7420746f20746865207a65726f2061646472657373600082015250565b7f45524337323155524953746f726167653a2055524920717565727920666f722060008201527f6e6f6e6578697374656e7420746f6b656e000000000000000000000000000000602082015250565b7f4552433732313a20617070726f76656420717565727920666f72206e6f6e657860008201527f697374656e7420746f6b656e0000000000000000000000000000000000000000602082015250565b7f4552433732313a207472616e73666572206f6620746f6b656e2074686174206960008201527f73206e6f74206f776e0000000000000000000000000000000000000000000000602082015250565b7f4552433732314d657461646174613a2055524920717565727920666f72206e6f60008201527f6e6578697374656e7420746f6b656e0000000000000000000000000000000000602082015250565b7f4f6e6c7920565246436f6f7264696e61746f722063616e2066756c66696c6c00600082015250565b7f596f752063616e206f6e6c79206a6f696e206f6e6365207065722067616d652e600082015250565b7f4552433732313a20617070726f76616c20746f2063757272656e74206f776e6560008201527f7200000000000000000000000000000000000000000000000000000000000000602082015250565b7f47616d652068617320616c726561647920656e6465642e000000000000000000600082015250565b7f4552433732313a207472616e736665722063616c6c6572206973206e6f74206f60008201527f776e6572206e6f7220617070726f766564000000000000000000000000000000602082015250565b61596981614fcb565b811461597457600080fd5b50565b61598081614fdd565b811461598b57600080fd5b50565b61599781614fe9565b81146159a257600080fd5b50565b6159ae81614ff3565b81146159b957600080fd5b50565b6159c58161503f565b81146159d057600080fd5b5056fea2646970667358221220f6a87e39f3db90b9c431475e8dd924578ca7a9eea9ab4d262b86919498b1d6b064736f6c63430008040033",
  "immutableReferences": {
    "1332": [
      {
        "length": 32,
        "start": 9710
      },
      {
        "length": 32,
        "start": 11295
      }
    ],
    "1334": [
      {
        "length": 32,
        "start": 4452
      },
      {
        "length": 32,
        "start": 11355
      }
    ]
  },
  "source": "// SPDX-License-Identifier: MIT\npragma solidity >=0.8.2 <0.9.0;\n\nimport \"@openzeppelin/contracts/utils/math/SafeMath.sol\";\nimport \"@openzeppelin/contracts/token/ERC721/extensions/ERC721URIStorage.sol\";\nimport \"@openzeppelin/contracts/utils/Counters.sol\";\nimport \"@chainlink/contracts/src/v0.8/dev/VRFConsumerBase.sol\";\nimport 'synthetix/contracts/interfaces/IAddressResolver.sol';\nimport 'synthetix/contracts/interfaces/IERC20.sol';\n\ncontract Game is ERC721URIStorage, VRFConsumerBase {\n    using Counters for Counters.Counter;\n    using SafeMath for uint256;\n\n    Counters.Counter private _tokenIds;\n\n    // Game settings\n    uint256 public constant duration = 10 minutes;\n    uint256 public constant prize = 10;  // amount of SNX the user is gifted when they win\n    uint256 public end;\n\n    // SNX token interfaces\n    IAddressResolver public synthetixResolver;\n    address private synthAddress;\n\n    // Fighters and players\n    struct Fighter {\n        uint256 strength;\n        uint256 stamina;\n        uint256 speed;\n    }\n    uint256 public playerCount;\n    address[300] public players;\n    uint256 public battleRound;\n\n    // Random requests\n    bytes32 public endRequestId;\n    uint256 public endRandomness;\n    bytes32 public lastRequestId;\n    mapping (bytes32 => address) public playerRequestId;\n    bytes32 internal keyHash;\n    uint256 internal fee;\n\n    // Internals\n    mapping (address => bool) public currentPlayers;\n    mapping (address => bool) public pendingPlayers;\n    mapping (address => uint256) public currentPlayerId;\n    mapping (address => Fighter) public fighterByPlayer;\n    mapping (uint256 => Fighter) public nfts;\n    mapping (uint256 => uint256) public prizeByNFT;\n\n    // Events\n    event RoundFought(address indexed player, Fighter hero, Fighter opponent, bool result);\n    event PlayerWon(address indexed player, Fighter hero);\n    event PlayerJoined(address indexed player);\n    event FighterJoined(address indexed player, Fighter hero);\n    event FighterBoosted(address indexed player, Fighter hero);\n    event BattleContinued(uint256 battleCount);\n\n    /**\n     * An epic battle to the death for a last man standing to win an NFT of their fighter and some SNX.\n     */\n    constructor( address _vrfCoordinator, address _linkToken, address _resolver, bytes32 _keyHash) payable\n    ERC721(\"Spartan\", \"SPARTAN\")\n    VRFConsumerBase(_vrfCoordinator, _linkToken) {\n        // Manage SNX\n        synthetixResolver = IAddressResolver(_resolver);\n        // @todo get the correct lookup name for SNX instead of sUSD\n        synthAddress = synthetixResolver.getAddress('ProxyERC20sUSD');\n        require(synthAddress != address(0), 'SNX is missing from Synthetix resolver');\n\n        // Manage randomness\n        keyHash = _keyHash;\n        fee = 0.1 * 10 ** 18;\n\n        // Start the game\n        end = block.timestamp + duration;\n    }\n\n    /**\n     * Join the game by requesting a new random number to generate my fighter.\n     */\n    function joinGame() external {\n        require(end>block.timestamp, \"Game has already ended.\");\n        require(playerCount<300, \"Only 300 fighters allowed per game.\");\n        require(currentPlayers[msg.sender] == false, \"You can only join once per game.\");\n        bytes32 requestId = requestRandomness();\n        playerRequestId[requestId] = msg.sender;\n        lastRequestId = requestId;\n        pendingPlayers[msg.sender] = true;\n        emit PlayerJoined(msg.sender);\n    }\n\n    /**\n     * Return a list of players in the current game.\n     */\n    function getPlayers() external view returns(address[300] memory) {\n        return players;\n    }\n\n    /**\n     * Picks one player randomly and attempts to boost one of their stats.\n     */\n    function rebalanceFighters(uint256 randomness) private {\n        uint256 i;\n        uint256 strength;\n        uint256 stamina;\n        uint256 speed;\n        uint256 random;\n        uint256 playerId;\n        // Pick one random player\n        if(playerCount > 1) {\n            playerId = randomness.mod(playerCount);\n        }\n        Fighter memory fighter = fighterByPlayer[players[playerId]];\n        speed = uint256(keccak256(abi.encode(randomness, 4))).mod(80);\n        // Speed\n        if(speed > fighter.speed) {\n            fighter.speed = speed;\n            emit FighterBoosted(players[playerId], fighter);\n        } else {\n            // Stamina\n            stamina = uint256(keccak256(abi.encode(randomness, 5))).mod(80);\n            if(stamina > fighter.stamina) {\n                fighter.stamina = stamina;\n                emit FighterBoosted(players[playerId], fighter);\n            } else {\n                // Strength\n                strength = uint256(keccak256(abi.encode(randomness, 6))).mod(80);\n                if(strength > fighter.strength) {\n                    fighter.strength = strength;\n                    emit FighterBoosted(players[playerId], fighter);\n                }\n            }\n        }\n        fighterByPlayer[players[playerId]] = fighter;\n    }\n\n    /**\n     * Generates a fighter and adds them into battle trackers.\n     */\n    function createFighter(bytes32 requestId, uint256 randomness) private {\n        address player = playerRequestId[requestId];\n        Fighter memory fighter = Fighter(\n            randomness.mod(99).add(1),\n            uint256(keccak256(abi.encode(randomness, 1))).mod(99).add(1),\n            uint256(keccak256(abi.encode(randomness, 2))).mod(99).add(1)\n        );\n        if(playerCount > 0) {\n            rebalanceFighters(randomness);\n        }\n        uint256 playerId;\n        if(currentPlayerId[player] > 0) {\n            playerId = currentPlayerId[player];\n        } else {\n            playerId = playerCount;\n            playerCount++;\n        }\n        players[playerId] = player;\n        currentPlayers[player] = true;\n        pendingPlayers[player] = false;\n        fighterByPlayer[player] = fighter;\n        emit FighterJoined(player, fighter);\n    }\n\n    /**\n     * Generates a fighter and guarantees each stat will be >= 30.\n     */\n    function generateOpponent(uint256 randomness, uint256 counter, uint256 battleId) private returns (Fighter memory fighter) {\n        fighter = Fighter(\n            uint256(keccak256(abi.encode(randomness, counter + 300))).mod(70).add(30).add(battleId),\n            uint256(keccak256(abi.encode(randomness, counter + 400))).mod(70).add(30).add(battleId),\n            uint256(keccak256(abi.encode(randomness, counter + 500))).mod(70).add(30).add(battleId)\n        );\n        return fighter;\n    }\n\n    /**\n     * End the game (if we haven't already.)  Can be called from public to reset the game.\n     */\n    function endGame() public {\n        require(end<block.timestamp, \"Game must expire first.\");\n        require(endRequestId == 0, \"Game end has already been requested.\");\n        endRequestId = requestRandomness();\n    }\n\n    /**\n     * Request randomness from VRF coordinator.\n     */\n    function requestRandomness() private returns(bytes32 requestId) {\n        require(LINK.balanceOf(address(this)) >= fee, \"Not enough LINK - fill contract with faucet\");\n        return requestRandomness(keyHash, fee, block.timestamp);\n    }\n\n    /**\n     * Fulfills requests for individual player generation or to end the final battle.\n     */\n    function fulfillRandomness(bytes32 requestId, uint256 randomness) internal override {\n        if(requestId == endRequestId) {\n            endRandomness = randomness;\n        } else {\n            require(playerRequestId[requestId] != address(0), \"Request ID does not exist.\");\n            createFighter(requestId, randomness);\n            playerRequestId[requestId] = address(0);\n        }\n    }\n\n    function fightWar() public {\n        require(end<block.timestamp, \"Game must expire first.\");\n        require(endRandomness > 0, \"Randomness must be generated.\");\n        endRequestId = 0;\n        fightBattle(endRandomness);\n        endRandomness = 0;\n    }\n\n    /**\n     * Battle manager for every player.  If there is only one winner at the end, the battle is over.\n     * If there are no winners at the end, the battle is over, and the last user to die wins.  If there\n     * are more than one winner, losers are removed and winners go again with a fresh random number.\n     */\n    function fightBattle(uint256 randomness) private returns (bool) {\n        require(end<block.timestamp, \"Game must expire first.\");\n\n        if(playerCount == 0) {\n            end = block.timestamp + duration;\n            return true;\n        }\n        battleRound++;\n\n        uint256 i;\n        Fighter memory opponent;\n        Fighter memory hero;\n        address player;\n        bool result;\n        for(i=0; i<players.length; i++) {\n            player = players[i];\n            if(player != address(0)) {\n                // Generate an opponent for our hero and fight the match\n                hero = fighterByPlayer[player];\n                opponent = generateOpponent(randomness, i, battleRound);\n                result = fightMatch(hero, opponent);\n\n                // Eliminate the loser\n                if(!result && playerCount > 1) {\n                    playerCount--;\n                    currentPlayers[player] = false;\n                    players[i] = address(0);\n                }\n                emit RoundFought(player, hero, opponent, result);\n            }\n        }\n\n        if(playerCount == 1) {\n            // Find and erase the player\n            for(i=0; i<players.length; i++) {\n                if(players[i] != address(0)) {\n                    player = players[i];\n                    players[i] = address(0);\n                }\n            }\n\n            // Reward the player\n            currentPlayers[player] = false;\n            rewardPlayer(player, fighterByPlayer[player]);\n            emit PlayerWon(player, fighterByPlayer[player]);\n\n            // Reset the game\n            playerCount = 0;\n            battleRound = 0;\n            end = block.timestamp + duration;\n        } else {\n            endGame();\n            emit BattleContinued(battleRound);\n        }\n\n        return true;\n    }\n\n    /**\n     * Battle between one hero and one opponent.\n     */\n    function fightMatch(Fighter memory hero, Fighter memory opponent) private returns (bool) {\n        uint256 opponentPoints;\n        uint256 heroPoints;\n\n        // Strength\n        if(opponent.strength > hero.strength) {\n            opponentPoints += opponent.strength - hero.strength;\n        } else {\n            heroPoints += hero.strength - opponent.strength;\n        }\n\n        // Stamina\n        if(opponent.stamina > hero.stamina) {\n            opponentPoints += opponent.stamina - hero.stamina;\n        } else {\n            heroPoints += hero.stamina - opponent.stamina;\n        }\n\n        // Speed\n        if(opponent.speed > hero.speed) {\n            opponentPoints += opponent.speed - hero.speed;\n        } else {\n            heroPoints += hero.speed - opponent.speed;\n        }\n        return (heroPoints > opponentPoints);\n    }\n\n    /**\n     * Mint the NFT for the winning player.\n     * Transfer some SNX to them as well (I think).\n     */\n    function rewardPlayer(address player, Fighter memory fighter) public {\n        _tokenIds.increment();\n        uint256 tokenId = _tokenIds.current();\n        _safeMint(player, tokenId);\n        nfts[tokenId] = fighter;\n        prizeByNFT[tokenId] += prize;\n    }\n\n\n    /**\n     * Claim my prizes. Once it's claimed we no longer have a record of the prize.\n     */\n    function claimMyPrizes() external {\n        uint256 tokenCount = balanceOf(msg.sender);\n        require(tokenCount>0,\"You do not own any tickets.\");\n        uint256 amount;\n        uint256 tokenId = _tokenIds.current();\n        for (uint256 t = 1; t <= tokenId; t++) {\n            if (_exists(t) && ownerOf(t) == msg.sender) {\n                amount += prizeByNFT[t];\n                prizeByNFT[t] = 0;\n            }\n        }\n\n        // Transfer money\n        //IERC20(snxAddress).transfer(msg.sender, amount);\n    }\n\n    /**\n     * Get my tokens helper function for front-end usability.\n     * Concept borrowed from CryptoKitties.\n     */\n    function getMyTokens() view public returns(uint256[] memory) {\n        uint256 tokenCount = balanceOf(msg.sender);\n        if (tokenCount == 0) {\n            return new uint256[](0);\n        } else {\n            uint256[] memory result = new uint256[](tokenCount);\n            uint256 totalTokens = _tokenIds.current();\n            uint256 resultIndex = 0;\n            for (uint256 t = 1; t <= totalTokens; t++) {\n                if (_exists(t) && ownerOf(t) == msg.sender) {\n                    result[resultIndex] = t;\n                    resultIndex++;\n                }\n            }\n            return result;\n        }\n    }\n}\n\n\n\n",
  "sourcePath": "/Users/Shared/Code/experimental/synthetix-spartan/contracts/Game.sol",
  "compiler": {
    "name": "solc",
    "version": "0.8.4+commit.c7e474f2.Emscripten.clang"
  },
  "schemaVersion": "3.4.1",
  "updatedAt": "2021-05-18T17:34:01.703Z",
  "networkType": "ethereum",
  "devdoc": {
    "kind": "dev",
    "methods": {
      "approve(address,uint256)": {
        "details": "See {IERC721-approve}."
      },
      "balanceOf(address)": {
        "details": "See {IERC721-balanceOf}."
      },
      "getApproved(uint256)": {
        "details": "See {IERC721-getApproved}."
      },
      "isApprovedForAll(address,address)": {
        "details": "See {IERC721-isApprovedForAll}."
      },
      "name()": {
        "details": "See {IERC721Metadata-name}."
      },
      "ownerOf(uint256)": {
        "details": "See {IERC721-ownerOf}."
      },
      "safeTransferFrom(address,address,uint256)": {
        "details": "See {IERC721-safeTransferFrom}."
      },
      "safeTransferFrom(address,address,uint256,bytes)": {
        "details": "See {IERC721-safeTransferFrom}."
      },
      "setApprovalForAll(address,bool)": {
        "details": "See {IERC721-setApprovalForAll}."
      },
      "supportsInterface(bytes4)": {
        "details": "See {IERC165-supportsInterface}."
      },
      "symbol()": {
        "details": "See {IERC721Metadata-symbol}."
      },
      "tokenURI(uint256)": {
        "details": "See {IERC721Metadata-tokenURI}."
      },
      "transferFrom(address,address,uint256)": {
        "details": "See {IERC721-transferFrom}."
      }
    },
    "version": 1
  },
  "userdoc": {
    "kind": "user",
    "methods": {
      "claimMyPrizes()": {
        "notice": "Claim my prizes. Once it's claimed we no longer have a record of the prize."
      },
      "constructor": {
        "notice": "An epic battle to the death for a last man standing to win an NFT of their fighter and some SNX."
      },
      "endGame()": {
        "notice": "End the game (if we haven't already.)  Can be called from public to reset the game."
      },
      "getMyTokens()": {
        "notice": "Get my tokens helper function for front-end usability. Concept borrowed from CryptoKitties."
      },
      "getPlayers()": {
        "notice": "Return a list of players in the current game."
      },
      "joinGame()": {
        "notice": "Join the game by requesting a new random number to generate my fighter."
      },
      "rewardPlayer(address,(uint256,uint256,uint256))": {
        "notice": "Mint the NFT for the winning player. Transfer some SNX to them as well (I think)."
      }
    },
    "version": 1
  }
}